{
  "contractName": "BeautifulBEP20Token",
  "abi": [
    {
      "inputs": [],
      "stateMutability": "nonpayable",
      "type": "constructor"
    },
    {
      "anonymous": false,
      "inputs": [
        {
          "indexed": true,
          "internalType": "address",
          "name": "owner",
          "type": "address"
        },
        {
          "indexed": true,
          "internalType": "address",
          "name": "spender",
          "type": "address"
        },
        {
          "indexed": false,
          "internalType": "uint256",
          "name": "value",
          "type": "uint256"
        }
      ],
      "name": "Approval",
      "type": "event"
    },
    {
      "anonymous": false,
      "inputs": [
        {
          "indexed": true,
          "internalType": "address",
          "name": "previousOwner",
          "type": "address"
        },
        {
          "indexed": true,
          "internalType": "address",
          "name": "newOwner",
          "type": "address"
        }
      ],
      "name": "OwnershipTransferred",
      "type": "event"
    },
    {
      "anonymous": false,
      "inputs": [
        {
          "indexed": true,
          "internalType": "address",
          "name": "from",
          "type": "address"
        },
        {
          "indexed": true,
          "internalType": "address",
          "name": "to",
          "type": "address"
        },
        {
          "indexed": false,
          "internalType": "uint256",
          "name": "value",
          "type": "uint256"
        }
      ],
      "name": "Transfer",
      "type": "event"
    },
    {
      "inputs": [
        {
          "internalType": "string",
          "name": "a",
          "type": "string"
        },
        {
          "internalType": "string",
          "name": "b",
          "type": "string"
        }
      ],
      "name": "concatenateStrings",
      "outputs": [
        {
          "internalType": "string",
          "name": "",
          "type": "string"
        }
      ],
      "stateMutability": "pure",
      "type": "function",
      "constant": true
    },
    {
      "inputs": [],
      "name": "decimals",
      "outputs": [
        {
          "internalType": "uint8",
          "name": "",
          "type": "uint8"
        }
      ],
      "stateMutability": "view",
      "type": "function",
      "constant": true
    },
    {
      "inputs": [],
      "name": "name",
      "outputs": [
        {
          "internalType": "string",
          "name": "",
          "type": "string"
        }
      ],
      "stateMutability": "view",
      "type": "function",
      "constant": true
    },
    {
      "inputs": [],
      "name": "owner",
      "outputs": [
        {
          "internalType": "address",
          "name": "",
          "type": "address"
        }
      ],
      "stateMutability": "view",
      "type": "function",
      "constant": true
    },
    {
      "inputs": [],
      "name": "renounceOwnership",
      "outputs": [],
      "stateMutability": "nonpayable",
      "type": "function"
    },
    {
      "inputs": [],
      "name": "symbol",
      "outputs": [
        {
          "internalType": "string",
          "name": "",
          "type": "string"
        }
      ],
      "stateMutability": "view",
      "type": "function",
      "constant": true
    },
    {
      "inputs": [
        {
          "internalType": "address",
          "name": "newOwner",
          "type": "address"
        }
      ],
      "name": "transferOwnership",
      "outputs": [],
      "stateMutability": "nonpayable",
      "type": "function"
    },
    {
      "inputs": [],
      "name": "totalSupply",
      "outputs": [
        {
          "internalType": "uint256",
          "name": "",
          "type": "uint256"
        }
      ],
      "stateMutability": "view",
      "type": "function",
      "constant": true
    },
    {
      "inputs": [
        {
          "internalType": "address",
          "name": "account",
          "type": "address"
        }
      ],
      "name": "balanceOf",
      "outputs": [
        {
          "internalType": "uint256",
          "name": "",
          "type": "uint256"
        }
      ],
      "stateMutability": "view",
      "type": "function",
      "constant": true
    },
    {
      "inputs": [
        {
          "internalType": "address",
          "name": "recipient",
          "type": "address"
        },
        {
          "internalType": "uint256",
          "name": "amount",
          "type": "uint256"
        }
      ],
      "name": "transfer",
      "outputs": [
        {
          "internalType": "bool",
          "name": "",
          "type": "bool"
        }
      ],
      "stateMutability": "nonpayable",
      "type": "function"
    },
    {
      "inputs": [
        {
          "internalType": "address",
          "name": "owner",
          "type": "address"
        },
        {
          "internalType": "address",
          "name": "spender",
          "type": "address"
        }
      ],
      "name": "allowance",
      "outputs": [
        {
          "internalType": "uint256",
          "name": "",
          "type": "uint256"
        }
      ],
      "stateMutability": "view",
      "type": "function",
      "constant": true
    },
    {
      "inputs": [
        {
          "internalType": "address",
          "name": "spender",
          "type": "address"
        },
        {
          "internalType": "uint256",
          "name": "amount",
          "type": "uint256"
        }
      ],
      "name": "approve",
      "outputs": [
        {
          "internalType": "bool",
          "name": "",
          "type": "bool"
        }
      ],
      "stateMutability": "nonpayable",
      "type": "function"
    },
    {
      "inputs": [
        {
          "internalType": "address",
          "name": "sender",
          "type": "address"
        },
        {
          "internalType": "address",
          "name": "recipient",
          "type": "address"
        },
        {
          "internalType": "uint256",
          "name": "amount",
          "type": "uint256"
        }
      ],
      "name": "transferFrom",
      "outputs": [
        {
          "internalType": "bool",
          "name": "",
          "type": "bool"
        }
      ],
      "stateMutability": "nonpayable",
      "type": "function"
    }
  ],
  "bytecode": "0x60806040523480156200001157600080fd5b506000620000246200026560201b60201c565b9050806000806101000a81548173ffffffffffffffffffffffffffffffffffffffff021916908373ffffffffffffffffffffffffffffffffffffffff1602179055508073ffffffffffffffffffffffffffffffffffffffff16600073ffffffffffffffffffffffffffffffffffffffff167f8be0079c531659141344cd1fd0a4f28419497f9722a3daafe3b4186f6b6457e060405160405180910390a3506040518060400160405280600e81526020017f4d795374616b696e67546f6b656e000000000000000000000000000000000000815250600190805190602001906200010f9291906200026d565b506040518060400160405280600381526020017f4d53540000000000000000000000000000000000000000000000000000000000815250600290805190602001906200015d9291906200026d565b506001600360006101000a81548160ff021916908360ff160217905550600360009054906101000a900460ff16600a620001989190620004b7565b633b9aca00620001a9919062000508565b600681905550600654600460003373ffffffffffffffffffffffffffffffffffffffff1673ffffffffffffffffffffffffffffffffffffffff168152602001908152602001600020819055503373ffffffffffffffffffffffffffffffffffffffff16600073ffffffffffffffffffffffffffffffffffffffff167fddf252ad1be2c89b69c2b068fc378daa952ba7f163c4a11628f55a4df523b3ef6006546040516200025791906200057a565b60405180910390a3620005fb565b600033905090565b8280546200027b90620005c6565b90600052602060002090601f0160209004810192826200029f5760008555620002eb565b82601f10620002ba57805160ff1916838001178555620002eb565b82800160010185558215620002eb579182015b82811115620002ea578251825591602001919060010190620002cd565b5b509050620002fa9190620002fe565b5090565b5b8082111562000319576000816000905550600101620002ff565b5090565b7f4e487b7100000000000000000000000000000000000000000000000000000000600052601160045260246000fd5b60008160011c9050919050565b6000808291508390505b6001851115620003ab578086048111156200038357620003826200031d565b5b6001851615620003935780820291505b8081029050620003a3856200034c565b945062000363565b94509492505050565b600082620003c6576001905062000499565b81620003d6576000905062000499565b8160018114620003ef5760028114620003fa5762000430565b600191505062000499565b60ff8411156200040f576200040e6200031d565b5b8360020a9150848211156200042957620004286200031d565b5b5062000499565b5060208310610133831016604e8410600b84101617156200046a5782820a9050838111156200046457620004636200031d565b5b62000499565b62000479848484600162000359565b925090508184048111156200049357620004926200031d565b5b81810290505b9392505050565b6000819050919050565b600060ff82169050919050565b6000620004c482620004a0565b9150620004d183620004aa565b9250620005007fffffffffffffffffffffffffffffffffffffffffffffffffffffffffffffffff8484620003b4565b905092915050565b60006200051582620004a0565b91506200052283620004a0565b9250817fffffffffffffffffffffffffffffffffffffffffffffffffffffffffffffffff04831182151516156200055e576200055d6200031d565b5b828202905092915050565b6200057481620004a0565b82525050565b600060208201905062000591600083018462000569565b92915050565b7f4e487b7100000000000000000000000000000000000000000000000000000000600052602260045260246000fd5b60006002820490506001821680620005df57607f821691505b602082108103620005f557620005f462000597565b5b50919050565b611b4f806200060b6000396000f3fe608060405234801561001057600080fd5b50600436106100cf5760003560e01c8063715018a61161008c57806395d89b411161006657806395d89b4114610216578063a9059cbb14610234578063dd62ed3e14610264578063f2fde38b14610294576100cf565b8063715018a6146101be5780637a36b3ee146101c85780638da5cb5b146101f8576100cf565b806306fdde03146100d4578063095ea7b3146100f257806318160ddd1461012257806323b872dd14610140578063313ce5671461017057806370a082311461018e575b600080fd5b6100dc6102b0565b6040516100e99190611151565b60405180910390f35b61010c6004803603810190610107919061121b565b61033e565b6040516101199190611276565b60405180910390f35b61012a610355565b60405161013791906112a0565b60405180910390f35b61015a600480360381019061015591906112bb565b61035f565b6040516101679190611276565b60405180910390f35b610178610409565b604051610185919061132a565b60405180910390f35b6101a860048036038101906101a39190611345565b61041c565b6040516101b591906112a0565b60405180910390f35b6101c6610465565b005b6101e260048036038101906101dd91906114a7565b6105b8565b6040516101ef9190611151565b60405180910390f35b6102006105e4565b60405161020d919061152e565b60405180910390f35b61021e61060d565b60405161022b9190611151565b60405180910390f35b61024e6004803603810190610249919061121b565b61069b565b60405161025b9190611276565b60405180910390f35b61027e60048036038101906102799190611549565b6106b2565b60405161028b91906112a0565b60405180910390f35b6102ae60048036038101906102a99190611345565b610739565b005b600180546102bd906115b8565b80601f01602080910402602001604051908101604052809291908181526020018280546102e9906115b8565b80156103365780601f1061030b57610100808354040283529160200191610336565b820191906000526020600020905b81548152906001019060200180831161031957829003601f168201915b505050505081565b600061034b3384846107da565b6001905092915050565b6000600654905090565b600061036c8484846109a3565b6103fe843384600560008973ffffffffffffffffffffffffffffffffffffffff1673ffffffffffffffffffffffffffffffffffffffff16815260200190815260200160002060003373ffffffffffffffffffffffffffffffffffffffff1673ffffffffffffffffffffffffffffffffffffffff168152602001908152602001600020546103f99190611618565b6107da565b600190509392505050565b600360009054906101000a900460ff1681565b6000600460008373ffffffffffffffffffffffffffffffffffffffff1673ffffffffffffffffffffffffffffffffffffffff168152602001908152602001600020549050919050565b61046d610c79565b73ffffffffffffffffffffffffffffffffffffffff1660008054906101000a900473ffffffffffffffffffffffffffffffffffffffff1673ffffffffffffffffffffffffffffffffffffffff16146104fa576040517f08c379a00000000000000000000000000000000000000000000000000000000081526004016104f190611698565b60405180910390fd5b600073ffffffffffffffffffffffffffffffffffffffff1660008054906101000a900473ffffffffffffffffffffffffffffffffffffffff1673ffffffffffffffffffffffffffffffffffffffff167f8be0079c531659141344cd1fd0a4f28419497f9722a3daafe3b4186f6b6457e060405160405180910390a360008060006101000a81548173ffffffffffffffffffffffffffffffffffffffff021916908373ffffffffffffffffffffffffffffffffffffffff160217905550565b606082826040516020016105cd9291906116f4565b604051602081830303815290604052905092915050565b60008060009054906101000a900473ffffffffffffffffffffffffffffffffffffffff16905090565b6002805461061a906115b8565b80601f0160208091040260200160405190810160405280929190818152602001828054610646906115b8565b80156106935780601f1061066857610100808354040283529160200191610693565b820191906000526020600020905b81548152906001019060200180831161067657829003601f168201915b505050505081565b60006106a83384846109a3565b6001905092915050565b6000600560008473ffffffffffffffffffffffffffffffffffffffff1673ffffffffffffffffffffffffffffffffffffffff16815260200190815260200160002060008373ffffffffffffffffffffffffffffffffffffffff1673ffffffffffffffffffffffffffffffffffffffff16815260200190815260200160002054905092915050565b610741610c79565b73ffffffffffffffffffffffffffffffffffffffff1660008054906101000a900473ffffffffffffffffffffffffffffffffffffffff1673ffffffffffffffffffffffffffffffffffffffff16146107ce576040517f08c379a00000000000000000000000000000000000000000000000000000000081526004016107c590611698565b60405180910390fd5b6107d781610c81565b50565b600073ffffffffffffffffffffffffffffffffffffffff168373ffffffffffffffffffffffffffffffffffffffff1603610849576040517f08c379a00000000000000000000000000000000000000000000000000000000081526004016108409061178a565b60405180910390fd5b600073ffffffffffffffffffffffffffffffffffffffff168273ffffffffffffffffffffffffffffffffffffffff16036108b8576040517f08c379a00000000000000000000000000000000000000000000000000000000081526004016108af9061181c565b60405180910390fd5b80600560008573ffffffffffffffffffffffffffffffffffffffff1673ffffffffffffffffffffffffffffffffffffffff16815260200190815260200160002060008473ffffffffffffffffffffffffffffffffffffffff1673ffffffffffffffffffffffffffffffffffffffff168152602001908152602001600020819055508173ffffffffffffffffffffffffffffffffffffffff168373ffffffffffffffffffffffffffffffffffffffff167f8c5be1e5ebec7d5bd14f71427d1e84f3dd0314c0f7b2291e5b200ac8c7c3b9258360405161099691906112a0565b60405180910390a3505050565b600073ffffffffffffffffffffffffffffffffffffffff168373ffffffffffffffffffffffffffffffffffffffff1603610a12576040517f08c379a0000000000000000000000000000000000000000000000000000000008152600401610a09906118ae565b60405180910390fd5b600073ffffffffffffffffffffffffffffffffffffffff168273ffffffffffffffffffffffffffffffffffffffff1603610a81576040517f08c379a0000000000000000000000000000000000000000000000000000000008152600401610a7890611940565b60405180910390fd5b80600460008573ffffffffffffffffffffffffffffffffffffffff1673ffffffffffffffffffffffffffffffffffffffff168152602001908152602001600020541015610b216040518060400160405280601c81526020017f45524332303a20696e73756666696369656e742062616c616e63652000000000815250610b1c8673ffffffffffffffffffffffffffffffffffffffff16610dad565b6105b8565b90610b62576040517f08c379a0000000000000000000000000000000000000000000000000000000008152600401610b599190611151565b60405180910390fd5b5080600460008573ffffffffffffffffffffffffffffffffffffffff1673ffffffffffffffffffffffffffffffffffffffff1681526020019081526020016000206000828254610bb29190611618565b9250508190555080600460008473ffffffffffffffffffffffffffffffffffffffff1673ffffffffffffffffffffffffffffffffffffffff1681526020019081526020016000206000828254610c089190611960565b925050819055508173ffffffffffffffffffffffffffffffffffffffff168373ffffffffffffffffffffffffffffffffffffffff167fddf252ad1be2c89b69c2b068fc378daa952ba7f163c4a11628f55a4df523b3ef83604051610c6c91906112a0565b60405180910390a3505050565b600033905090565b600073ffffffffffffffffffffffffffffffffffffffff168173ffffffffffffffffffffffffffffffffffffffff1603610cf0576040517f08c379a0000000000000000000000000000000000000000000000000000000008152600401610ce790611a28565b60405180910390fd5b8073ffffffffffffffffffffffffffffffffffffffff1660008054906101000a900473ffffffffffffffffffffffffffffffffffffffff1673ffffffffffffffffffffffffffffffffffffffff167f8be0079c531659141344cd1fd0a4f28419497f9722a3daafe3b4186f6b6457e060405160405180910390a3806000806101000a81548173ffffffffffffffffffffffffffffffffffffffff021916908373ffffffffffffffffffffffffffffffffffffffff16021790555050565b606060008273ffffffffffffffffffffffffffffffffffffffff1660001b905060006040518060400160405280601081526020017f303132333435363738396162636465660000000000000000000000000000000081525090506000602a67ffffffffffffffff811115610e2457610e2361137c565b5b6040519080825280601f01601f191660200182016040528015610e565781602001600182028036833780820191505090505b5090507f300000000000000000000000000000000000000000000000000000000000000081600081518110610e8e57610e8d611a48565b5b60200101907effffffffffffffffffffffffffffffffffffffffffffffffffffffffffffff1916908160001a9053507f780000000000000000000000000000000000000000000000000000000000000081600181518110610ef257610ef1611a48565b5b60200101907effffffffffffffffffffffffffffffffffffffffffffffffffffffffffffff1916908160001a90535060005b60148110156110ac5782600485600c84610f3e9190611960565b60208110610f4f57610f4e611a48565b5b1a60f81b7effffffffffffffffffffffffffffffffffffffffffffffffffffffffffffff1916901c60f81c60ff1681518110610f8e57610f8d611a48565b5b602001015160f81c60f81b82600283610fa79190611a77565b6002610fb39190611960565b81518110610fc457610fc3611a48565b5b60200101907effffffffffffffffffffffffffffffffffffffffffffffffffffffffffffff1916908160001a90535082600f60f81b85600c846110079190611960565b6020811061101857611017611a48565b5b1a60f81b1660f81c60ff168151811061103457611033611a48565b5b602001015160f81c60f81b8260028361104d9190611a77565b60036110599190611960565b8151811061106a57611069611a48565b5b60200101907effffffffffffffffffffffffffffffffffffffffffffffffffffffffffffff1916908160001a90535080806110a490611ad1565b915050610f24565b50809350505050919050565b600081519050919050565b600082825260208201905092915050565b60005b838110156110f25780820151818401526020810190506110d7565b83811115611101576000848401525b50505050565b6000601f19601f8301169050919050565b6000611123826110b8565b61112d81856110c3565b935061113d8185602086016110d4565b61114681611107565b840191505092915050565b6000602082019050818103600083015261116b8184611118565b905092915050565b6000604051905090565b600080fd5b600080fd5b600073ffffffffffffffffffffffffffffffffffffffff82169050919050565b60006111b282611187565b9050919050565b6111c2816111a7565b81146111cd57600080fd5b50565b6000813590506111df816111b9565b92915050565b6000819050919050565b6111f8816111e5565b811461120357600080fd5b50565b600081359050611215816111ef565b92915050565b600080604083850312156112325761123161117d565b5b6000611240858286016111d0565b925050602061125185828601611206565b9150509250929050565b60008115159050919050565b6112708161125b565b82525050565b600060208201905061128b6000830184611267565b92915050565b61129a816111e5565b82525050565b60006020820190506112b56000830184611291565b92915050565b6000806000606084860312156112d4576112d361117d565b5b60006112e2868287016111d0565b93505060206112f3868287016111d0565b925050604061130486828701611206565b9150509250925092565b600060ff82169050919050565b6113248161130e565b82525050565b600060208201905061133f600083018461131b565b92915050565b60006020828403121561135b5761135a61117d565b5b6000611369848285016111d0565b91505092915050565b600080fd5b600080fd5b7f4e487b7100000000000000000000000000000000000000000000000000000000600052604160045260246000fd5b6113b482611107565b810181811067ffffffffffffffff821117156113d3576113d261137c565b5b80604052505050565b60006113e6611173565b90506113f282826113ab565b919050565b600067ffffffffffffffff8211156114125761141161137c565b5b61141b82611107565b9050602081019050919050565b82818337600083830152505050565b600061144a611445846113f7565b6113dc565b90508281526020810184848401111561146657611465611377565b5b611471848285611428565b509392505050565b600082601f83011261148e5761148d611372565b5b813561149e848260208601611437565b91505092915050565b600080604083850312156114be576114bd61117d565b5b600083013567ffffffffffffffff8111156114dc576114db611182565b5b6114e885828601611479565b925050602083013567ffffffffffffffff81111561150957611508611182565b5b61151585828601611479565b9150509250929050565b611528816111a7565b82525050565b6000602082019050611543600083018461151f565b92915050565b600080604083850312156115605761155f61117d565b5b600061156e858286016111d0565b925050602061157f858286016111d0565b9150509250929050565b7f4e487b7100000000000000000000000000000000000000000000000000000000600052602260045260246000fd5b600060028204905060018216806115d057607f821691505b6020821081036115e3576115e2611589565b5b50919050565b7f4e487b7100000000000000000000000000000000000000000000000000000000600052601160045260246000fd5b6000611623826111e5565b915061162e836111e5565b925082821015611641576116406115e9565b5b828203905092915050565b7f4f776e61626c653a2063616c6c6572206973206e6f7420746865206f776e6572600082015250565b60006116826020836110c3565b915061168d8261164c565b602082019050919050565b600060208201905081810360008301526116b181611675565b9050919050565b600081905092915050565b60006116ce826110b8565b6116d881856116b8565b93506116e88185602086016110d4565b80840191505092915050565b600061170082856116c3565b915061170c82846116c3565b91508190509392505050565b7f45524332303a20617070726f76652066726f6d20746865207a65726f2061646460008201527f7265737300000000000000000000000000000000000000000000000000000000602082015250565b60006117746024836110c3565b915061177f82611718565b604082019050919050565b600060208201905081810360008301526117a381611767565b9050919050565b7f45524332303a20617070726f766520746f20746865207a65726f20616464726560008201527f7373000000000000000000000000000000000000000000000000000000000000602082015250565b60006118066022836110c3565b9150611811826117aa565b604082019050919050565b60006020820190508181036000830152611835816117f9565b9050919050565b7f45524332303a207472616e736665722066726f6d20746865207a65726f20616460008201527f6472657373000000000000000000000000000000000000000000000000000000602082015250565b60006118986025836110c3565b91506118a38261183c565b604082019050919050565b600060208201905081810360008301526118c78161188b565b9050919050565b7f45524332303a207472616e7366657220746f20746865207a65726f206164647260008201527f6573730000000000000000000000000000000000000000000000000000000000602082015250565b600061192a6023836110c3565b9150611935826118ce565b604082019050919050565b600060208201905081810360008301526119598161191d565b9050919050565b600061196b826111e5565b9150611976836111e5565b9250827fffffffffffffffffffffffffffffffffffffffffffffffffffffffffffffffff038211156119ab576119aa6115e9565b5b828201905092915050565b7f4f776e61626c653a206e6577206f776e657220697320746865207a65726f206160008201527f6464726573730000000000000000000000000000000000000000000000000000602082015250565b6000611a126026836110c3565b9150611a1d826119b6565b604082019050919050565b60006020820190508181036000830152611a4181611a05565b9050919050565b7f4e487b7100000000000000000000000000000000000000000000000000000000600052603260045260246000fd5b6000611a82826111e5565b9150611a8d836111e5565b9250817fffffffffffffffffffffffffffffffffffffffffffffffffffffffffffffffff0483118215151615611ac657611ac56115e9565b5b828202905092915050565b6000611adc826111e5565b91507fffffffffffffffffffffffffffffffffffffffffffffffffffffffffffffffff8203611b0e57611b0d6115e9565b5b60018201905091905056fea264697066735822122087b11a8dc09c92c47e5fe34d5937425031ecf9bc4077e0a16102eb0c96e7705e64736f6c634300080d0033",
  "immutableReferences": {},
  "source": "// SPDX-License-Identifier: UNLICENSE\npragma solidity ^0.8.13;\n\ninterface IERC20 {\n    function totalSupply() external view returns (uint256);\n    function balanceOf(address account) external view returns (uint256);\n    function transfer(address recipient, uint256 amount) external returns (bool);\n    function allowance(address owner, address spender) external view returns (uint256);\n    function approve(address spender, uint256 amount) external returns (bool);\n    function transferFrom(address sender, address recipient, uint256 amount) external returns (bool);\n\n    event Transfer(address indexed from, address indexed to, uint256 value);\n    event Approval(address indexed owner, address indexed spender, uint256 value);\n}\n\nabstract contract Context { \n\n  function _msgSender() internal view returns (address) {\n    return msg.sender;\n  }\n\n  function _msgData() internal view returns (bytes memory) {\n    this; // silence state mutability warning without generating bytecode - see https://github.com/ethereum/solidity/issues/2691\n    return msg.data;\n  }\n}\n\n\nlibrary SafeMath {\n\n  function add(uint256 a, uint256 b) internal pure returns (uint256) {\n    uint256 c = a + b;\n    require(c >= a, \"SafeMath: addition overflow\");\n\n    return c;\n  }\n\n  function sub(uint256 a, uint256 b) internal pure returns (uint256) {\n    return sub(a, b, \"SafeMath: subtraction overflow\");\n  }\n\n  function sub(uint256 a, uint256 b, string memory errorMessage) internal pure returns (uint256) {\n    require(b <= a, errorMessage);\n    uint256 c = a - b;\n\n    return c;\n  }\n\n  function mul(uint256 a, uint256 b) internal pure returns (uint256) {\n    if (a == 0) {\n      return 0;\n    }\n\n    uint256 c = a * b;\n    require(c / a == b, \"SafeMath: multiplication overflow\");\n\n    return c;\n  }\n\n  function div(uint256 a, uint256 b) internal pure returns (uint256) {\n    return div(a, b, \"SafeMath: division by zero\");\n  }\n\n  function div(uint256 a, uint256 b, string memory errorMessage) internal pure returns (uint256) {\n    // Solidity only automatically asserts when dividing by 0\n    require(b > 0, errorMessage);\n    uint256 c = a / b;\n    // assert(a == b * c + a % b); // There is no case in which this doesn't hold\n\n    return c;\n  }\n\n  function mod(uint256 a, uint256 b) internal pure returns (uint256) {\n    return mod(a, b, \"SafeMath: modulo by zero\");\n  }\n\n  function mod(uint256 a, uint256 b, string memory errorMessage) internal pure returns (uint256) {\n    require(b != 0, errorMessage);\n    return a % b;\n  }\n}\n\nabstract contract Ownable is Context {\n  address private _owner;\n  event OwnershipTransferred(address indexed previousOwner, address indexed newOwner);\n\n  constructor ()  {\n    address msgSender = _msgSender();\n    _owner = msgSender;\n    emit OwnershipTransferred(address(0), msgSender);\n  }\n\n  function owner() public view returns (address) {\n    return _owner;\n  }\n\n  modifier onlyOwner() {\n    require(_owner == _msgSender(), \"Ownable: caller is not the owner\");\n    _;\n  }\n\n  function renounceOwnership() public onlyOwner {\n    emit OwnershipTransferred(_owner, address(0));\n    _owner = address(0);\n  }\n\n  function transferOwnership(address newOwner) public onlyOwner {\n    _transferOwnership(newOwner);\n  }\n\n  function _transferOwnership(address newOwner) internal {\n    require(newOwner != address(0), \"Ownable: new owner is the zero address\");\n    emit OwnershipTransferred(_owner, newOwner);\n    _owner = newOwner;\n  }\n}\n\ncontract StringConcatenation {\n    function concatenateStrings(string memory a, string memory b) public pure returns (string memory) {\n        return string(abi.encodePacked(a, b));\n    }\n}\n\n\nlibrary AddressToString {\n    function addressToString(address _address) internal pure returns (string memory) {\n        bytes32 value = bytes32(uint256(uint160(_address)));\n        bytes memory alphabet = \"0123456789abcdef\";\n\n        bytes memory str = new bytes(42);\n        str[0] = \"0\";\n        str[1] = \"x\";\n        for (uint256 i = 0; i < 20; i++) {\n            str[2 + i * 2] = alphabet[uint8(value[i + 12] >> 4)];\n            str[3 + i * 2] = alphabet[uint8(value[i + 12] & 0x0f)];\n        }\n\n        return string(str);\n    }\n}\n\ncontract BeautifulBEP20Token is Context, Ownable, IERC20, StringConcatenation {\n\n    using AddressToString for address;\n    // using StringConcatenation for string;\n\n    string public name;\n    string public symbol;\n    uint8 public decimals;\n\n    mapping(address => uint256) private _balances;\n    mapping(address => mapping(address => uint256)) private _allowances;\n\n    uint256 private _totalSupply;\n\n    constructor() {\n        name = \"MyStakingToken\";\n        symbol = \"MST\";\n        decimals = 1;\n        _totalSupply = 1000000000 * (10**decimals);\n        _balances[msg.sender] = _totalSupply;\n        emit Transfer(address(0), msg.sender, _totalSupply);\n    }\n\n    function totalSupply() external view override returns (uint256) {\n        return _totalSupply;\n    }\n\n    function balanceOf(address account) external view override returns (uint256) {\n        return _balances[account];\n    }\n\n    function transfer(address recipient, uint256 amount) external override returns (bool) {\n        _transfer(msg.sender, recipient, amount);\n        return true;\n    }\n\n    function allowance(address owner, address spender) external view override returns (uint256) {\n        return _allowances[owner][spender];\n    }\n\n    function approve(address spender, uint256 amount) external override returns (bool) {\n        _approve(msg.sender, spender, amount);\n        return true;\n    }\n\n    function transferFrom(address sender, address recipient, uint256 amount) external override returns (bool) {\n        _transfer(sender, recipient, amount);\n        _approve(sender, msg.sender, _allowances[sender][msg.sender] - amount);\n        return true;\n    }\n\n    function _transfer(address sender, address recipient, uint256 amount) internal {\n        require(sender != address(0), \"ERC20: transfer from the zero address\");\n        require(recipient != address(0), \"ERC20: transfer to the zero address\");\n        require(_balances[sender] >= amount, concatenateStrings(\"ERC20: insufficient balance \", sender.addressToString()));\n\n        _balances[sender] -= amount;\n        _balances[recipient] += amount;\n        emit Transfer(sender, recipient, amount);\n    }\n\n    function _approve(address owner, address spender, uint256 amount) internal {\n        require(owner != address(0), \"ERC20: approve from the zero address\");\n        require(spender != address(0), \"ERC20: approve to the zero address\");\n\n        _allowances[owner][spender] = amount;\n        emit Approval(owner, spender, amount);\n    }\n}",
  "sourcePath": "/Users/vivekaasaithambi/PersonalCoding/Solidity/metacoin/contracts/StakingToken.sol",
  "compiler": {
    "name": "solc",
    "version": "0.8.13+commit.abaa5c0e.Emscripten.clang"
  },
  "schemaVersion": "3.4.16",
  "updatedAt": "2023-12-02T09:57:50.980Z",
  "networkType": "ethereum",
  "devdoc": {
    "kind": "dev",
    "methods": {},
    "version": 1
  },
  "userdoc": {
    "kind": "user",
    "methods": {},
    "version": 1
  }
}