{
  "contractName": "StakingContract",
  "abi": [
    {
      "inputs": [
        {
          "internalType": "address",
          "name": "_tokenAddress",
          "type": "address"
        }
      ],
      "stateMutability": "nonpayable",
      "type": "constructor"
    },
    {
      "anonymous": false,
      "inputs": [
        {
          "indexed": false,
          "internalType": "string",
          "name": "message",
          "type": "string"
        },
        {
          "indexed": false,
          "internalType": "uint256",
          "name": "amount",
          "type": "uint256"
        }
      ],
      "name": "Log",
      "type": "event"
    },
    {
      "anonymous": false,
      "inputs": [
        {
          "indexed": false,
          "internalType": "string",
          "name": "message",
          "type": "string"
        },
        {
          "indexed": false,
          "internalType": "address",
          "name": "addres",
          "type": "address"
        }
      ],
      "name": "Log",
      "type": "event"
    },
    {
      "anonymous": false,
      "inputs": [
        {
          "indexed": true,
          "internalType": "address",
          "name": "previousOwner",
          "type": "address"
        },
        {
          "indexed": true,
          "internalType": "address",
          "name": "newOwner",
          "type": "address"
        }
      ],
      "name": "OwnershipTransferred",
      "type": "event"
    },
    {
      "anonymous": false,
      "inputs": [
        {
          "indexed": true,
          "internalType": "address",
          "name": "user",
          "type": "address"
        },
        {
          "indexed": false,
          "internalType": "uint256",
          "name": "amount",
          "type": "uint256"
        }
      ],
      "name": "Staked",
      "type": "event"
    },
    {
      "anonymous": false,
      "inputs": [
        {
          "indexed": true,
          "internalType": "address",
          "name": "user",
          "type": "address"
        },
        {
          "indexed": false,
          "internalType": "uint256",
          "name": "amount",
          "type": "uint256"
        }
      ],
      "name": "Withdrawn",
      "type": "event"
    },
    {
      "inputs": [],
      "name": "lastUpdateTime",
      "outputs": [
        {
          "internalType": "uint256",
          "name": "",
          "type": "uint256"
        }
      ],
      "stateMutability": "view",
      "type": "function",
      "constant": true
    },
    {
      "inputs": [],
      "name": "owner",
      "outputs": [
        {
          "internalType": "address",
          "name": "",
          "type": "address"
        }
      ],
      "stateMutability": "view",
      "type": "function",
      "constant": true
    },
    {
      "inputs": [],
      "name": "renounceOwnership",
      "outputs": [],
      "stateMutability": "nonpayable",
      "type": "function"
    },
    {
      "inputs": [
        {
          "internalType": "address",
          "name": "",
          "type": "address"
        }
      ],
      "name": "stakedBalance",
      "outputs": [
        {
          "internalType": "uint256",
          "name": "",
          "type": "uint256"
        }
      ],
      "stateMutability": "view",
      "type": "function",
      "constant": true
    },
    {
      "inputs": [],
      "name": "stakingToken",
      "outputs": [
        {
          "internalType": "contract IERC20",
          "name": "",
          "type": "address"
        }
      ],
      "stateMutability": "view",
      "type": "function",
      "constant": true
    },
    {
      "inputs": [
        {
          "internalType": "address",
          "name": "newOwner",
          "type": "address"
        }
      ],
      "name": "transferOwnership",
      "outputs": [],
      "stateMutability": "nonpayable",
      "type": "function"
    },
    {
      "inputs": [
        {
          "internalType": "address",
          "name": "_holder",
          "type": "address"
        }
      ],
      "name": "changeWalletHolder",
      "outputs": [],
      "stateMutability": "nonpayable",
      "type": "function"
    },
    {
      "inputs": [],
      "name": "getWalletHolder",
      "outputs": [
        {
          "internalType": "address",
          "name": "",
          "type": "address"
        }
      ],
      "stateMutability": "view",
      "type": "function",
      "constant": true
    },
    {
      "inputs": [
        {
          "internalType": "uint256",
          "name": "amount",
          "type": "uint256"
        }
      ],
      "name": "stake",
      "outputs": [],
      "stateMutability": "nonpayable",
      "type": "function"
    },
    {
      "inputs": [
        {
          "internalType": "address",
          "name": "staker",
          "type": "address"
        }
      ],
      "name": "getStakedTokenAmount",
      "outputs": [
        {
          "internalType": "uint256",
          "name": "",
          "type": "uint256"
        }
      ],
      "stateMutability": "view",
      "type": "function",
      "constant": true
    },
    {
      "inputs": [
        {
          "internalType": "address",
          "name": "receiver",
          "type": "address"
        },
        {
          "internalType": "uint256",
          "name": "amount",
          "type": "uint256"
        }
      ],
      "name": "withdraw",
      "outputs": [],
      "stateMutability": "nonpayable",
      "type": "function"
    },
    {
      "inputs": [
        {
          "internalType": "address",
          "name": "_holder",
          "type": "address"
        },
        {
          "internalType": "uint256",
          "name": "amount",
          "type": "uint256"
        }
      ],
      "name": "withdrawStakeWithoutTransfer",
      "outputs": [],
      "stateMutability": "nonpayable",
      "type": "function"
    }
  ],
  "bytecode": "0x60806040523480156200001157600080fd5b50604051620016f1380380620016f18339818101604052810190620000379190620001e9565b6000620000496200017760201b60201c565b9050806000806101000a81548173ffffffffffffffffffffffffffffffffffffffff021916908373ffffffffffffffffffffffffffffffffffffffff1602179055508073ffffffffffffffffffffffffffffffffffffffff16600073ffffffffffffffffffffffffffffffffffffffff167f8be0079c531659141344cd1fd0a4f28419497f9722a3daafe3b4186f6b6457e060405160405180910390a35080600160006101000a81548173ffffffffffffffffffffffffffffffffffffffff021916908373ffffffffffffffffffffffffffffffffffffffff16021790555033600360006101000a81548173ffffffffffffffffffffffffffffffffffffffff021916908373ffffffffffffffffffffffffffffffffffffffff16021790555042600281905550506200021b565b600033905090565b600080fd5b600073ffffffffffffffffffffffffffffffffffffffff82169050919050565b6000620001b18262000184565b9050919050565b620001c381620001a4565b8114620001cf57600080fd5b50565b600081519050620001e381620001b8565b92915050565b6000602082840312156200020257620002016200017f565b5b60006200021284828501620001d2565b91505092915050565b6114c6806200022b6000396000f3fe608060405234801561001057600080fd5b50600436106100b45760003560e01c80638da5cb5b116100715780638da5cb5b14610167578063a694fc3a14610185578063c8f33c91146101a1578063f2fde38b146101bf578063f3fef3a3146101db578063f404da2d146101f7576100b4565b8063055f9ed4146100b9578063398b44e6146100d757806360217267146100f3578063715018a61461012357806372f702f31461012d578063817fb95d1461014b575b600080fd5b6100c1610227565b6040516100ce9190610e0b565b60405180910390f35b6100f160048036038101906100ec9190610e8d565b610251565b005b61010d60048036038101906101089190610ecd565b610453565b60405161011a9190610f09565b60405180910390f35b61012b61046b565b005b6101356105be565b6040516101429190610f83565b60405180910390f35b61016560048036038101906101609190610ecd565b6105e4565b005b61016f6106bd565b60405161017c9190610e0b565b60405180910390f35b61019f600480360381019061019a9190610f9e565b6106e6565b005b6101a9610903565b6040516101b69190610f09565b60405180910390f35b6101d960048036038101906101d49190610ecd565b610909565b005b6101f560048036038101906101f09190610e8d565b6109aa565b005b610211600480360381019061020c9190610ecd565b610c4d565b60405161021e9190610f09565b60405180910390f35b6000600360009054906101000a900473ffffffffffffffffffffffffffffffffffffffff16905090565b610259610c96565b73ffffffffffffffffffffffffffffffffffffffff1660008054906101000a900473ffffffffffffffffffffffffffffffffffffffff1673ffffffffffffffffffffffffffffffffffffffff16146102e6576040517f08c379a00000000000000000000000000000000000000000000000000000000081526004016102dd90611028565b60405180910390fd5b60008111610329576040517f08c379a000000000000000000000000000000000000000000000000000000000815260040161032090611094565b60405180910390fd5b80600460008473ffffffffffffffffffffffffffffffffffffffff1673ffffffffffffffffffffffffffffffffffffffff1681526020019081526020016000205410156103ab576040517f08c379a00000000000000000000000000000000000000000000000000000000081526004016103a290611100565b60405180910390fd5b80600460008473ffffffffffffffffffffffffffffffffffffffff1673ffffffffffffffffffffffffffffffffffffffff16815260200190815260200160002060008282546103fa919061114f565b925050819055508173ffffffffffffffffffffffffffffffffffffffff167f7084f5476618d8e60b11ef0d7d3f06914655adb8793e28ff7f018d4c76d505d5826040516104479190610f09565b60405180910390a25050565b60046020528060005260406000206000915090505481565b610473610c96565b73ffffffffffffffffffffffffffffffffffffffff1660008054906101000a900473ffffffffffffffffffffffffffffffffffffffff1673ffffffffffffffffffffffffffffffffffffffff1614610500576040517f08c379a00000000000000000000000000000000000000000000000000000000081526004016104f790611028565b60405180910390fd5b600073ffffffffffffffffffffffffffffffffffffffff1660008054906101000a900473ffffffffffffffffffffffffffffffffffffffff1673ffffffffffffffffffffffffffffffffffffffff167f8be0079c531659141344cd1fd0a4f28419497f9722a3daafe3b4186f6b6457e060405160405180910390a360008060006101000a81548173ffffffffffffffffffffffffffffffffffffffff021916908373ffffffffffffffffffffffffffffffffffffffff160217905550565b600160009054906101000a900473ffffffffffffffffffffffffffffffffffffffff1681565b6105ec610c96565b73ffffffffffffffffffffffffffffffffffffffff1660008054906101000a900473ffffffffffffffffffffffffffffffffffffffff1673ffffffffffffffffffffffffffffffffffffffff1614610679576040517f08c379a000000000000000000000000000000000000000000000000000000000815260040161067090611028565b60405180910390fd5b80600360006101000a81548173ffffffffffffffffffffffffffffffffffffffff021916908373ffffffffffffffffffffffffffffffffffffffff16021790555050565b60008060009054906101000a900473ffffffffffffffffffffffffffffffffffffffff16905090565b7fdd970dd9b5bfe707922155b058a407655cb18288b807e2216442bca8ad83d6b58160405161071591906111cf565b60405180910390a17f1dfffa052d4a63bd70f14b863e128979d1c59e3589a0a3beb2633a120047042d3360405161074c9190611249565b60405180910390a160008111610797576040517f08c379a000000000000000000000000000000000000000000000000000000000815260040161078e906112c3565b60405180910390fd5b600160009054906101000a900473ffffffffffffffffffffffffffffffffffffffff1673ffffffffffffffffffffffffffffffffffffffff166323b872dd33600360009054906101000a900473ffffffffffffffffffffffffffffffffffffffff16846040518463ffffffff1660e01b8152600401610818939291906112e3565b6020604051808303816000875af1158015610837573d6000803e3d6000fd5b505050506040513d601f19601f8201168201806040525081019061085b9190611352565b5080600460003373ffffffffffffffffffffffffffffffffffffffff1673ffffffffffffffffffffffffffffffffffffffff16815260200190815260200160002060008282546108ab919061137f565b925050819055503373ffffffffffffffffffffffffffffffffffffffff167f9e71bc8eea02a63969f509818f2dafb9254532904319f9dbda79b67bd34a5f3d826040516108f89190610f09565b60405180910390a250565b60025481565b610911610c96565b73ffffffffffffffffffffffffffffffffffffffff1660008054906101000a900473ffffffffffffffffffffffffffffffffffffffff1673ffffffffffffffffffffffffffffffffffffffff161461099e576040517f08c379a000000000000000000000000000000000000000000000000000000000815260040161099590611028565b60405180910390fd5b6109a781610c9e565b50565b6109b2610c96565b73ffffffffffffffffffffffffffffffffffffffff1660008054906101000a900473ffffffffffffffffffffffffffffffffffffffff1673ffffffffffffffffffffffffffffffffffffffff1614610a3f576040517f08c379a0000000000000000000000000000000000000000000000000000000008152600401610a3690611028565b60405180910390fd5b60008111610a82576040517f08c379a0000000000000000000000000000000000000000000000000000000008152600401610a7990611094565b60405180910390fd5b80600460008473ffffffffffffffffffffffffffffffffffffffff1673ffffffffffffffffffffffffffffffffffffffff168152602001908152602001600020541115610b04576040517f08c379a0000000000000000000000000000000000000000000000000000000008152600401610afb90611100565b60405180910390fd5b80600460008473ffffffffffffffffffffffffffffffffffffffff1673ffffffffffffffffffffffffffffffffffffffff1681526020019081526020016000206000828254610b53919061114f565b92505081905550600160009054906101000a900473ffffffffffffffffffffffffffffffffffffffff1673ffffffffffffffffffffffffffffffffffffffff1663a9059cbb83836040518363ffffffff1660e01b8152600401610bb79291906113d5565b6020604051808303816000875af1158015610bd6573d6000803e3d6000fd5b505050506040513d601f19601f82011682018060405250810190610bfa9190611352565b508173ffffffffffffffffffffffffffffffffffffffff167f7084f5476618d8e60b11ef0d7d3f06914655adb8793e28ff7f018d4c76d505d582604051610c419190610f09565b60405180910390a25050565b6000600460008373ffffffffffffffffffffffffffffffffffffffff1673ffffffffffffffffffffffffffffffffffffffff168152602001908152602001600020549050919050565b600033905090565b600073ffffffffffffffffffffffffffffffffffffffff168173ffffffffffffffffffffffffffffffffffffffff1603610d0d576040517f08c379a0000000000000000000000000000000000000000000000000000000008152600401610d0490611470565b60405180910390fd5b8073ffffffffffffffffffffffffffffffffffffffff1660008054906101000a900473ffffffffffffffffffffffffffffffffffffffff1673ffffffffffffffffffffffffffffffffffffffff167f8be0079c531659141344cd1fd0a4f28419497f9722a3daafe3b4186f6b6457e060405160405180910390a3806000806101000a81548173ffffffffffffffffffffffffffffffffffffffff021916908373ffffffffffffffffffffffffffffffffffffffff16021790555050565b600073ffffffffffffffffffffffffffffffffffffffff82169050919050565b6000610df582610dca565b9050919050565b610e0581610dea565b82525050565b6000602082019050610e206000830184610dfc565b92915050565b600080fd5b610e3481610dea565b8114610e3f57600080fd5b50565b600081359050610e5181610e2b565b92915050565b6000819050919050565b610e6a81610e57565b8114610e7557600080fd5b50565b600081359050610e8781610e61565b92915050565b60008060408385031215610ea457610ea3610e26565b5b6000610eb285828601610e42565b9250506020610ec385828601610e78565b9150509250929050565b600060208284031215610ee357610ee2610e26565b5b6000610ef184828501610e42565b91505092915050565b610f0381610e57565b82525050565b6000602082019050610f1e6000830184610efa565b92915050565b6000819050919050565b6000610f49610f44610f3f84610dca565b610f24565b610dca565b9050919050565b6000610f5b82610f2e565b9050919050565b6000610f6d82610f50565b9050919050565b610f7d81610f62565b82525050565b6000602082019050610f986000830184610f74565b92915050565b600060208284031215610fb457610fb3610e26565b5b6000610fc284828501610e78565b91505092915050565b600082825260208201905092915050565b7f4f776e61626c653a2063616c6c6572206973206e6f7420746865206f776e6572600082015250565b6000611012602083610fcb565b915061101d82610fdc565b602082019050919050565b6000602082019050818103600083015261104181611005565b9050919050565b7f43616e6e6f742077697468647261772030000000000000000000000000000000600082015250565b600061107e601183610fcb565b915061108982611048565b602082019050919050565b600060208201905081810360008301526110ad81611071565b9050919050565b7f496e73756666696369656e742042616c616e6365000000000000000000000000600082015250565b60006110ea601483610fcb565b91506110f5826110b4565b602082019050919050565b60006020820190508181036000830152611119816110dd565b9050919050565b7f4e487b7100000000000000000000000000000000000000000000000000000000600052601160045260246000fd5b600061115a82610e57565b915061116583610e57565b92508282101561117857611177611120565b5b828203905092915050565b7f416d6f756e74207374616b696e673a2000000000000000000000000000000000600082015250565b60006111b9601083610fcb565b91506111c482611183565b602082019050919050565b600060408201905081810360008301526111e8816111ac565b90506111f76020830184610efa565b92915050565b7f5374616b65723a20000000000000000000000000000000000000000000000000600082015250565b6000611233600883610fcb565b915061123e826111fd565b602082019050919050565b6000604082019050818103600083015261126281611226565b90506112716020830184610dfc565b92915050565b7f43616e6e6f74207374616b652030000000000000000000000000000000000000600082015250565b60006112ad600e83610fcb565b91506112b882611277565b602082019050919050565b600060208201905081810360008301526112dc816112a0565b9050919050565b60006060820190506112f86000830186610dfc565b6113056020830185610dfc565b6113126040830184610efa565b949350505050565b60008115159050919050565b61132f8161131a565b811461133a57600080fd5b50565b60008151905061134c81611326565b92915050565b60006020828403121561136857611367610e26565b5b60006113768482850161133d565b91505092915050565b600061138a82610e57565b915061139583610e57565b9250827fffffffffffffffffffffffffffffffffffffffffffffffffffffffffffffffff038211156113ca576113c9611120565b5b828201905092915050565b60006040820190506113ea6000830185610dfc565b6113f76020830184610efa565b9392505050565b7f4f776e61626c653a206e6577206f776e657220697320746865207a65726f206160008201527f6464726573730000000000000000000000000000000000000000000000000000602082015250565b600061145a602683610fcb565b9150611465826113fe565b604082019050919050565b600060208201905081810360008301526114898161144d565b905091905056fea26469706673582212209c75716d93e6e0c183b79929ec6f59e6d333b4376913137c1a723355a576825b64736f6c634300080d0033",
  "immutableReferences": {},
  "source": "// SPDX-License-Identifier: MIT\npragma solidity ^0.8.13;\n\ninterface IERC20 {\n  function totalSupply() external view returns (uint256);\n  function decimals() external view returns (uint8);\n  function symbol() external view returns (string memory);\n  function name() external view returns (string memory);\n  function getOwner() external view returns (address);\n  function balanceOf(address account) external view returns (uint256);\n  function transfer(address recipient, uint256 amount) external returns (bool);\n  function allowance(address _owner, address spender) external view returns (uint256);\n  function approve(address spender, uint256 amount) external returns (bool);\n  function transferFrom(address sender, address recipient, uint256 amount) external returns (bool);\n  event Transfer(address indexed from, address indexed to, uint256 value);\n  event Approval(address indexed owner, address indexed spender, uint256 value);\n}\n\nabstract contract Context { \n\n  function _msgSender() internal view returns (address) {\n    return msg.sender;\n  }\n\n  function _msgData() internal view returns (bytes memory) {\n    this; // silence state mutability warning without generating bytecode - see https://github.com/ethereum/solidity/issues/2691\n    return msg.data;\n  }\n}\n\n\nabstract contract Ownable is Context {\n  address private _owner;\n  event OwnershipTransferred(address indexed previousOwner, address indexed newOwner);\n\n  constructor ()  {\n    address msgSender = _msgSender();\n    _owner = msgSender;\n    emit OwnershipTransferred(address(0), msgSender);\n  }\n\n  function owner() public view returns (address) {\n    return _owner;\n  }\n\n  modifier onlyOwner() {\n    require(_owner == _msgSender(), \"Ownable: caller is not the owner\");\n    _;\n  }\n\n  function renounceOwnership() public onlyOwner {\n    emit OwnershipTransferred(_owner, address(0));\n    _owner = address(0);\n  }\n\n  function transferOwnership(address newOwner) public onlyOwner {\n    _transferOwnership(newOwner);\n  }\n\n  function _transferOwnership(address newOwner) internal {\n    require(newOwner != address(0), \"Ownable: new owner is the zero address\");\n    emit OwnershipTransferred(_owner, newOwner);\n    _owner = newOwner;\n  }\n}\n\n\ncontract StakingContract is Ownable {\n    IERC20 public stakingToken; // The token users stake\n    uint256 public lastUpdateTime; // Last time rewards were updated\n    address walletHolder;\n\n    mapping(address => uint256) public stakedBalance;\n\n    event Staked(address indexed user, uint256 amount);\n    event Withdrawn(address indexed user, uint256 amount);\n    event Log(string message, uint256 amount);\n    event Log(string message, address addres);\n\n    constructor(address _tokenAddress) {\n        stakingToken = IERC20(_tokenAddress);\n        walletHolder = msg.sender;\n        lastUpdateTime = block.timestamp;\n    }\n\n    function changeWalletHolder(address _holder)  public onlyOwner {\n        walletHolder = _holder;\n    }\n\n    function getWalletHolder()  public view returns (address) {\n        return walletHolder;\n    }\n\n    function stake(uint256 amount) external {\n        emit Log(\"Amount staking: \", amount);\n        emit Log(\"Staker: \", msg.sender);\n        require(amount > 0, \"Cannot stake 0\");\n        stakingToken.transferFrom(msg.sender, walletHolder, amount);\n        stakedBalance[msg.sender] += amount;\n        emit Staked(msg.sender, amount);\n    }\n\n    function getStakedTokenAmount(address staker) public view returns  (uint256) {\n        return stakedBalance[staker];\n    }\n\n    function withdraw(address receiver, uint256 amount) external onlyOwner {\n        require(amount > 0, \"Cannot withdraw 0\");\n        require(stakedBalance[receiver] <= amount, \"Insufficient Balance\");\n        stakedBalance[receiver] -= amount;\n        stakingToken.transfer(receiver, amount);\n        emit Withdrawn(receiver, amount);\n    }\n\n    function withdrawStakeWithoutTransfer(address _holder, uint256 amount) external onlyOwner {\n        require(amount > 0, \"Cannot withdraw 0\");\n        require(stakedBalance[_holder] >= amount, \"Insufficient Balance\");\n        stakedBalance[_holder] -= amount;\n        emit Withdrawn(_holder, amount);\n    }\n    // 63518869000\n}\n",
  "sourcePath": "/Users/vivekaasaithambi/PersonalCoding/Solidity/metacoin/contracts/StakingContract.sol",
  "compiler": {
    "name": "solc",
    "version": "0.8.13+commit.abaa5c0e.Emscripten.clang"
  },
  "schemaVersion": "3.4.16",
  "updatedAt": "2023-12-02T09:57:50.987Z",
  "networkType": "ethereum",
  "devdoc": {
    "kind": "dev",
    "methods": {},
    "version": 1
  },
  "userdoc": {
    "kind": "user",
    "methods": {},
    "version": 1
  }
}