{
  "contractName": "StringConcatenation",
  "abi": [
    {
      "inputs": [
        {
          "internalType": "string",
          "name": "a",
          "type": "string"
        },
        {
          "internalType": "string",
          "name": "b",
          "type": "string"
        }
      ],
      "name": "concatenateStrings",
      "outputs": [
        {
          "internalType": "string",
          "name": "",
          "type": "string"
        }
      ],
      "stateMutability": "pure",
      "type": "function"
    }
  ],
  "bytecode": "0x608060405234801561001057600080fd5b5061039e806100206000396000f3fe608060405234801561001057600080fd5b506004361061002b5760003560e01c80637a36b3ee14610030575b600080fd5b61004a600480360381019061004591906101e6565b610060565b60405161005791906102e6565b60405180910390f35b60608282604051602001610075929190610344565b604051602081830303815290604052905092915050565b6000604051905090565b600080fd5b600080fd5b600080fd5b600080fd5b6000601f19601f8301169050919050565b7f4e487b7100000000000000000000000000000000000000000000000000000000600052604160045260246000fd5b6100f3826100aa565b810181811067ffffffffffffffff82111715610112576101116100bb565b5b80604052505050565b600061012561008c565b905061013182826100ea565b919050565b600067ffffffffffffffff821115610151576101506100bb565b5b61015a826100aa565b9050602081019050919050565b82818337600083830152505050565b600061018961018484610136565b61011b565b9050828152602081018484840111156101a5576101a46100a5565b5b6101b0848285610167565b509392505050565b600082601f8301126101cd576101cc6100a0565b5b81356101dd848260208601610176565b91505092915050565b600080604083850312156101fd576101fc610096565b5b600083013567ffffffffffffffff81111561021b5761021a61009b565b5b610227858286016101b8565b925050602083013567ffffffffffffffff8111156102485761024761009b565b5b610254858286016101b8565b9150509250929050565b600081519050919050565b600082825260208201905092915050565b60005b8381101561029857808201518184015260208101905061027d565b838111156102a7576000848401525b50505050565b60006102b88261025e565b6102c28185610269565b93506102d281856020860161027a565b6102db816100aa565b840191505092915050565b6000602082019050818103600083015261030081846102ad565b905092915050565b600081905092915050565b600061031e8261025e565b6103288185610308565b935061033881856020860161027a565b80840191505092915050565b60006103508285610313565b915061035c8284610313565b9150819050939250505056fea26469706673582212203192e718fd766168bcd105a87282004edd58452b006259c6306a33def9e3823164736f6c634300080d0033",
  "immutableReferences": {},
  "source": "// SPDX-License-Identifier: UNLICENSE\npragma solidity ^0.8.13;\n\ninterface IERC20 {\n    function totalSupply() external view returns (uint256);\n    function balanceOf(address account) external view returns (uint256);\n    function transfer(address recipient, uint256 amount) external returns (bool);\n    function allowance(address owner, address spender) external view returns (uint256);\n    function approve(address spender, uint256 amount) external returns (bool);\n    function transferFrom(address sender, address recipient, uint256 amount) external returns (bool);\n\n    event Transfer(address indexed from, address indexed to, uint256 value);\n    event Approval(address indexed owner, address indexed spender, uint256 value);\n}\n\nabstract contract Context { \n\n  function _msgSender() internal view returns (address) {\n    return msg.sender;\n  }\n\n  function _msgData() internal view returns (bytes memory) {\n    this; // silence state mutability warning without generating bytecode - see https://github.com/ethereum/solidity/issues/2691\n    return msg.data;\n  }\n}\n\n\nlibrary SafeMath {\n\n  function add(uint256 a, uint256 b) internal pure returns (uint256) {\n    uint256 c = a + b;\n    require(c >= a, \"SafeMath: addition overflow\");\n\n    return c;\n  }\n\n  function sub(uint256 a, uint256 b) internal pure returns (uint256) {\n    return sub(a, b, \"SafeMath: subtraction overflow\");\n  }\n\n  function sub(uint256 a, uint256 b, string memory errorMessage) internal pure returns (uint256) {\n    require(b <= a, errorMessage);\n    uint256 c = a - b;\n\n    return c;\n  }\n\n  function mul(uint256 a, uint256 b) internal pure returns (uint256) {\n    if (a == 0) {\n      return 0;\n    }\n\n    uint256 c = a * b;\n    require(c / a == b, \"SafeMath: multiplication overflow\");\n\n    return c;\n  }\n\n  function div(uint256 a, uint256 b) internal pure returns (uint256) {\n    return div(a, b, \"SafeMath: division by zero\");\n  }\n\n  function div(uint256 a, uint256 b, string memory errorMessage) internal pure returns (uint256) {\n    // Solidity only automatically asserts when dividing by 0\n    require(b > 0, errorMessage);\n    uint256 c = a / b;\n    // assert(a == b * c + a % b); // There is no case in which this doesn't hold\n\n    return c;\n  }\n\n  function mod(uint256 a, uint256 b) internal pure returns (uint256) {\n    return mod(a, b, \"SafeMath: modulo by zero\");\n  }\n\n  function mod(uint256 a, uint256 b, string memory errorMessage) internal pure returns (uint256) {\n    require(b != 0, errorMessage);\n    return a % b;\n  }\n}\n\nabstract contract Ownable is Context {\n  address private _owner;\n  event OwnershipTransferred(address indexed previousOwner, address indexed newOwner);\n\n  constructor ()  {\n    address msgSender = _msgSender();\n    _owner = msgSender;\n    emit OwnershipTransferred(address(0), msgSender);\n  }\n\n  function owner() public view returns (address) {\n    return _owner;\n  }\n\n  modifier onlyOwner() {\n    require(_owner == _msgSender(), \"Ownable: caller is not the owner\");\n    _;\n  }\n\n  function renounceOwnership() public onlyOwner {\n    emit OwnershipTransferred(_owner, address(0));\n    _owner = address(0);\n  }\n\n  function transferOwnership(address newOwner) public onlyOwner {\n    _transferOwnership(newOwner);\n  }\n\n  function _transferOwnership(address newOwner) internal {\n    require(newOwner != address(0), \"Ownable: new owner is the zero address\");\n    emit OwnershipTransferred(_owner, newOwner);\n    _owner = newOwner;\n  }\n}\n\ncontract StringConcatenation {\n    function concatenateStrings(string memory a, string memory b) public pure returns (string memory) {\n        return string(abi.encodePacked(a, b));\n    }\n}\n\n\nlibrary AddressToString {\n    function addressToString(address _address) internal pure returns (string memory) {\n        bytes32 value = bytes32(uint256(uint160(_address)));\n        bytes memory alphabet = \"0123456789abcdef\";\n\n        bytes memory str = new bytes(42);\n        str[0] = \"0\";\n        str[1] = \"x\";\n        for (uint256 i = 0; i < 20; i++) {\n            str[2 + i * 2] = alphabet[uint8(value[i + 12] >> 4)];\n            str[3 + i * 2] = alphabet[uint8(value[i + 12] & 0x0f)];\n        }\n\n        return string(str);\n    }\n}\n\ncontract BeautifulBEP20Token is Context, Ownable, IERC20, StringConcatenation {\n\n    using AddressToString for address;\n    // using StringConcatenation for string;\n\n    string public name;\n    string public symbol;\n    uint8 public decimals;\n\n    mapping(address => uint256) private _balances;\n    mapping(address => mapping(address => uint256)) private _allowances;\n\n    uint256 private _totalSupply;\n\n    constructor() {\n        name = \"MyStakingToken\";\n        symbol = \"MST\";\n        decimals = 1;\n        _totalSupply = 1000000000 * (10**decimals);\n        _balances[msg.sender] = _totalSupply;\n        emit Transfer(address(0), msg.sender, _totalSupply);\n    }\n\n    function totalSupply() external view override returns (uint256) {\n        return _totalSupply;\n    }\n\n    function balanceOf(address account) external view override returns (uint256) {\n        return _balances[account];\n    }\n\n    function transfer(address recipient, uint256 amount) external override returns (bool) {\n        _transfer(msg.sender, recipient, amount);\n        return true;\n    }\n\n    function allowance(address owner, address spender) external view override returns (uint256) {\n        return _allowances[owner][spender];\n    }\n\n    function approve(address spender, uint256 amount) external override returns (bool) {\n        _approve(msg.sender, spender, amount);\n        return true;\n    }\n\n    function transferFrom(address sender, address recipient, uint256 amount) external override returns (bool) {\n        _transfer(sender, recipient, amount);\n        _approve(sender, msg.sender, _allowances[sender][msg.sender] - amount);\n        return true;\n    }\n\n    function _transfer(address sender, address recipient, uint256 amount) internal {\n        require(sender != address(0), \"ERC20: transfer from the zero address\");\n        require(recipient != address(0), \"ERC20: transfer to the zero address\");\n        require(_balances[sender] >= amount, concatenateStrings(\"ERC20: insufficient balance \", sender.addressToString()));\n\n        _balances[sender] -= amount;\n        _balances[recipient] += amount;\n        emit Transfer(sender, recipient, amount);\n    }\n\n    function _approve(address owner, address spender, uint256 amount) internal {\n        require(owner != address(0), \"ERC20: approve from the zero address\");\n        require(spender != address(0), \"ERC20: approve to the zero address\");\n\n        _allowances[owner][spender] = amount;\n        emit Approval(owner, spender, amount);\n    }\n}",
  "sourcePath": "/Users/vivekaasaithambi/PersonalCoding/Solidity/metacoin/contracts/StakingToken.sol",
  "compiler": {
    "name": "solc",
    "version": "0.8.13+commit.abaa5c0e.Emscripten.clang"
  },
  "schemaVersion": "3.4.16",
  "updatedAt": "2023-12-01T18:57:34.685Z",
  "devdoc": {
    "kind": "dev",
    "methods": {},
    "version": 1
  },
  "userdoc": {
    "kind": "user",
    "methods": {},
    "version": 1
  }
}